{
  "contractName": "Pool",
  "abi": [
    {
      "inputs": [
        {
          "internalType": "uint256",
          "name": "stockCount",
          "type": "uint256"
        },
        {
          "internalType": "string",
          "name": "providedPoolName",
          "type": "string"
        },
        {
          "internalType": "address payable",
          "name": "creator",
          "type": "address"
        }
      ],
      "stateMutability": "nonpayable",
      "type": "constructor"
    },
    {
      "anonymous": false,
      "inputs": [
        {
          "indexed": true,
          "internalType": "address",
          "name": "account",
          "type": "address"
        },
        {
          "indexed": true,
          "internalType": "address",
          "name": "operator",
          "type": "address"
        },
        {
          "indexed": false,
          "internalType": "bool",
          "name": "approved",
          "type": "bool"
        }
      ],
      "name": "ApprovalForAll",
      "type": "event"
    },
    {
      "anonymous": false,
      "inputs": [
        {
          "indexed": true,
          "internalType": "address",
          "name": "operator",
          "type": "address"
        },
        {
          "indexed": true,
          "internalType": "address",
          "name": "from",
          "type": "address"
        },
        {
          "indexed": true,
          "internalType": "address",
          "name": "to",
          "type": "address"
        },
        {
          "indexed": false,
          "internalType": "uint256[]",
          "name": "ids",
          "type": "uint256[]"
        },
        {
          "indexed": false,
          "internalType": "uint256[]",
          "name": "values",
          "type": "uint256[]"
        }
      ],
      "name": "TransferBatch",
      "type": "event"
    },
    {
      "anonymous": false,
      "inputs": [
        {
          "indexed": true,
          "internalType": "address",
          "name": "operator",
          "type": "address"
        },
        {
          "indexed": true,
          "internalType": "address",
          "name": "from",
          "type": "address"
        },
        {
          "indexed": true,
          "internalType": "address",
          "name": "to",
          "type": "address"
        },
        {
          "indexed": false,
          "internalType": "uint256",
          "name": "id",
          "type": "uint256"
        },
        {
          "indexed": false,
          "internalType": "uint256",
          "name": "value",
          "type": "uint256"
        }
      ],
      "name": "TransferSingle",
      "type": "event"
    },
    {
      "anonymous": false,
      "inputs": [
        {
          "indexed": false,
          "internalType": "string",
          "name": "value",
          "type": "string"
        },
        {
          "indexed": true,
          "internalType": "uint256",
          "name": "id",
          "type": "uint256"
        }
      ],
      "name": "URI",
      "type": "event"
    },
    {
      "inputs": [
        {
          "internalType": "address",
          "name": "account",
          "type": "address"
        },
        {
          "internalType": "uint256",
          "name": "id",
          "type": "uint256"
        }
      ],
      "name": "balanceOf",
      "outputs": [
        {
          "internalType": "uint256",
          "name": "",
          "type": "uint256"
        }
      ],
      "stateMutability": "view",
      "type": "function"
    },
    {
      "inputs": [
        {
          "internalType": "address[]",
          "name": "accounts",
          "type": "address[]"
        },
        {
          "internalType": "uint256[]",
          "name": "ids",
          "type": "uint256[]"
        }
      ],
      "name": "balanceOfBatch",
      "outputs": [
        {
          "internalType": "uint256[]",
          "name": "",
          "type": "uint256[]"
        }
      ],
      "stateMutability": "view",
      "type": "function"
    },
    {
      "inputs": [
        {
          "internalType": "address",
          "name": "account",
          "type": "address"
        },
        {
          "internalType": "address",
          "name": "operator",
          "type": "address"
        }
      ],
      "name": "isApprovedForAll",
      "outputs": [
        {
          "internalType": "bool",
          "name": "",
          "type": "bool"
        }
      ],
      "stateMutability": "view",
      "type": "function"
    },
    {
      "inputs": [
        {
          "internalType": "address",
          "name": "from",
          "type": "address"
        },
        {
          "internalType": "address",
          "name": "to",
          "type": "address"
        },
        {
          "internalType": "uint256[]",
          "name": "ids",
          "type": "uint256[]"
        },
        {
          "internalType": "uint256[]",
          "name": "amounts",
          "type": "uint256[]"
        },
        {
          "internalType": "bytes",
          "name": "data",
          "type": "bytes"
        }
      ],
      "name": "safeBatchTransferFrom",
      "outputs": [],
      "stateMutability": "nonpayable",
      "type": "function"
    },
    {
      "inputs": [
        {
          "internalType": "address",
          "name": "from",
          "type": "address"
        },
        {
          "internalType": "address",
          "name": "to",
          "type": "address"
        },
        {
          "internalType": "uint256",
          "name": "id",
          "type": "uint256"
        },
        {
          "internalType": "uint256",
          "name": "amount",
          "type": "uint256"
        },
        {
          "internalType": "bytes",
          "name": "data",
          "type": "bytes"
        }
      ],
      "name": "safeTransferFrom",
      "outputs": [],
      "stateMutability": "nonpayable",
      "type": "function"
    },
    {
      "inputs": [
        {
          "internalType": "address",
          "name": "operator",
          "type": "address"
        },
        {
          "internalType": "bool",
          "name": "approved",
          "type": "bool"
        }
      ],
      "name": "setApprovalForAll",
      "outputs": [],
      "stateMutability": "nonpayable",
      "type": "function"
    },
    {
      "inputs": [],
      "name": "stockIdx",
      "outputs": [
        {
          "internalType": "uint256",
          "name": "",
          "type": "uint256"
        }
      ],
      "stateMutability": "view",
      "type": "function"
    },
    {
      "inputs": [
        {
          "internalType": "bytes4",
          "name": "interfaceId",
          "type": "bytes4"
        }
      ],
      "name": "supportsInterface",
      "outputs": [
        {
          "internalType": "bool",
          "name": "",
          "type": "bool"
        }
      ],
      "stateMutability": "view",
      "type": "function"
    },
    {
      "inputs": [
        {
          "internalType": "uint256",
          "name": "",
          "type": "uint256"
        }
      ],
      "name": "uri",
      "outputs": [
        {
          "internalType": "string",
          "name": "",
          "type": "string"
        }
      ],
      "stateMutability": "view",
      "type": "function"
    },
    {
      "inputs": [
        {
          "internalType": "uint256",
          "name": "tokenTransferAmmount",
          "type": "uint256"
        }
      ],
      "name": "transferToken",
      "outputs": [],
      "stateMutability": "payable",
      "type": "function"
    },
    {
      "inputs": [
        {
          "internalType": "address",
          "name": "providedAccount",
          "type": "address"
        },
        {
          "internalType": "uint256",
          "name": "id",
          "type": "uint256"
        }
      ],
      "name": "getAccountTokenBalance",
      "outputs": [
        {
          "internalType": "uint256",
          "name": "",
          "type": "uint256"
        }
      ],
      "stateMutability": "nonpayable",
      "type": "function"
    },
    {
      "inputs": [],
      "name": "cashOut",
      "outputs": [],
      "stateMutability": "payable",
      "type": "function"
    },
    {
      "inputs": [],
      "name": "getSummary",
      "outputs": [
        {
          "internalType": "string",
          "name": "",
          "type": "string"
        },
        {
          "internalType": "uint256",
          "name": "",
          "type": "uint256"
        }
      ],
      "stateMutability": "view",
      "type": "function"
    }
  ],
  "bytecode": "0x60806040523480156200001157600080fd5b506040516200373138038062003731833981810160405281019062000037919062000737565b604051806020016040528060008152506200005881620000e760201b60201c565b5080600560006101000a81548173ffffffffffffffffffffffffffffffffffffffff021916908373ffffffffffffffffffffffffffffffffffffffff1602179055508160039080519060200190620000b2929190620005a4565b5082600481905550620000de81600085604051806020016040528060008152506200010360201b60201c565b50505062000e40565b8060029080519060200190620000ff929190620005a4565b5050565b600073ffffffffffffffffffffffffffffffffffffffff168473ffffffffffffffffffffffffffffffffffffffff16141562000176576040517f08c379a00000000000000000000000000000000000000000000000000000000081526004016200016d9062000a4e565b60405180910390fd5b600062000188620002c860201b60201c565b9050620001c181600087620001a388620002d060201b60201c565b620001b488620002d060201b60201c565b876200039960201b60201c565b8260008086815260200190815260200160002060008773ffffffffffffffffffffffffffffffffffffffff1673ffffffffffffffffffffffffffffffffffffffff168152602001908152602001600020600082825462000222919062000b3c565b925050819055508473ffffffffffffffffffffffffffffffffffffffff16600073ffffffffffffffffffffffffffffffffffffffff168273ffffffffffffffffffffffffffffffffffffffff167fc3d58168c5ae7397731d063d5bbf3d657854427343f4c083240f7aacaa2d0f628787604051620002a292919062000a70565b60405180910390a4620002c181600087878787620003a160201b60201c565b5050505050565b600033905090565b60606000600167ffffffffffffffff81111562000316577f4e487b7100000000000000000000000000000000000000000000000000000000600052604160045260246000fd5b604051908082528060200260200182016040528015620003455781602001602082028036833780820191505090505b509050828160008151811062000384577f4e487b7100000000000000000000000000000000000000000000000000000000600052603260045260246000fd5b60200260200101818152505080915050919050565b505050505050565b620003cd8473ffffffffffffffffffffffffffffffffffffffff166200059160201b62000c561760201c565b1562000589578373ffffffffffffffffffffffffffffffffffffffff1663f23a6e6187878686866040518663ffffffff1660e01b81526004016200041695949392919062000982565b602060405180830381600087803b1580156200043157600080fd5b505af19250505080156200046557506040513d601f19601f820116820180604052508101906200046291906200070b565b60015b620004fd576200047462000d2e565b80620004815750620004c0565b806040517f08c379a0000000000000000000000000000000000000000000000000000000008152600401620004b79190620009e6565b60405180910390fd5b6040517f08c379a0000000000000000000000000000000000000000000000000000000008152600401620004f49062000a0a565b60405180910390fd5b63f23a6e6160e01b7bffffffffffffffffffffffffffffffffffffffffffffffffffffffff1916817bffffffffffffffffffffffffffffffffffffffffffffffffffffffff19161462000587576040517f08c379a00000000000000000000000000000000000000000000000000000000081526004016200057e9062000a2c565b60405180910390fd5b505b505050505050565b600080823b905060008111915050919050565b828054620005b29062000c4d565b90600052602060002090601f016020900481019282620005d6576000855562000622565b82601f10620005f157805160ff191683800117855562000622565b8280016001018555821562000622579182015b828111156200062157825182559160200191906001019062000604565b5b50905062000631919062000635565b5090565b5b808211156200065057600081600090555060010162000636565b5090565b60006200066b620006658462000ad1565b62000a9d565b9050828152602081018484840111156200068457600080fd5b6200069184828562000c17565b509392505050565b600081519050620006aa8162000df2565b92915050565b600081519050620006c18162000e0c565b92915050565b600082601f830112620006d957600080fd5b8151620006eb84826020860162000654565b91505092915050565b600081519050620007058162000e26565b92915050565b6000602082840312156200071e57600080fd5b60006200072e84828501620006b0565b91505092915050565b6000806000606084860312156200074d57600080fd5b60006200075d86828701620006f4565b935050602084015167ffffffffffffffff8111156200077b57600080fd5b6200078986828701620006c7565b92505060406200079c8682870162000699565b9150509250925092565b620007b18162000b99565b82525050565b6000620007c48262000b04565b620007d0818562000b1a565b9350620007e281856020860162000c17565b620007ed8162000d10565b840191505092915050565b6000620008058262000b0f565b62000811818562000b2b565b93506200082381856020860162000c17565b6200082e8162000d10565b840191505092915050565b60006200084860348362000b2b565b91507f455243313135353a207472616e7366657220746f206e6f6e204552433131353560008301527f526563656976657220696d706c656d656e7465720000000000000000000000006020830152604082019050919050565b6000620008b060288362000b2b565b91507f455243313135353a204552433131353552656365697665722072656a6563746560008301527f6420746f6b656e730000000000000000000000000000000000000000000000006020830152604082019050919050565b60006200091860218362000b2b565b91507f455243313135353a206d696e7420746f20746865207a65726f2061646472657360008301527f73000000000000000000000000000000000000000000000000000000000000006020830152604082019050919050565b6200097c8162000c0d565b82525050565b600060a082019050620009996000830188620007a6565b620009a86020830187620007a6565b620009b7604083018662000971565b620009c6606083018562000971565b8181036080830152620009da8184620007b7565b90509695505050505050565b6000602082019050818103600083015262000a028184620007f8565b905092915050565b6000602082019050818103600083015262000a258162000839565b9050919050565b6000602082019050818103600083015262000a4781620008a1565b9050919050565b6000602082019050818103600083015262000a698162000909565b9050919050565b600060408201905062000a87600083018562000971565b62000a96602083018462000971565b9392505050565b6000604051905081810181811067ffffffffffffffff8211171562000ac75762000ac662000ce1565b5b8060405250919050565b600067ffffffffffffffff82111562000aef5762000aee62000ce1565b5b601f19601f8301169050602081019050919050565b600081519050919050565b600081519050919050565b600082825260208201905092915050565b600082825260208201905092915050565b600062000b498262000c0d565b915062000b568362000c0d565b9250827fffffffffffffffffffffffffffffffffffffffffffffffffffffffffffffffff0382111562000b8e5762000b8d62000c83565b5b828201905092915050565b600062000ba68262000bed565b9050919050565b600062000bba8262000bed565b9050919050565b60007fffffffff0000000000000000000000000000000000000000000000000000000082169050919050565b600073ffffffffffffffffffffffffffffffffffffffff82169050919050565b6000819050919050565b60005b8381101562000c3757808201518184015260208101905062000c1a565b8381111562000c47576000848401525b50505050565b6000600282049050600182168062000c6657607f821691505b6020821081141562000c7d5762000c7c62000cb2565b5b50919050565b7f4e487b7100000000000000000000000000000000000000000000000000000000600052601160045260246000fd5b7f4e487b7100000000000000000000000000000000000000000000000000000000600052602260045260246000fd5b7f4e487b7100000000000000000000000000000000000000000000000000000000600052604160045260246000fd5b6000601f19601f8301169050919050565b60008160e01c9050919050565b600060443d101562000d405762000def565b60046000803e62000d5360005162000d21565b6308c379a0811462000d66575062000def565b60405160043d036004823e80513d602482011167ffffffffffffffff8211171562000d945750505062000def565b808201805167ffffffffffffffff81111562000db557505050505062000def565b8060208301013d850181111562000dd25750505050505062000def565b62000ddd8262000d10565b60208401016040528296505050505050505b90565b62000dfd8162000bad565b811462000e0957600080fd5b50565b62000e178162000bc1565b811462000e2357600080fd5b50565b62000e318162000c0d565b811462000e3d57600080fd5b50565b6128e18062000e506000396000f3fe6080604052600436106100c15760003560e01c806372fbb0711161007f578063a22cb46511610059578063a22cb46514610260578063e985e9c514610289578063f1430a54146102c6578063f242432a14610303576100c1565b806372fbb0711461020f578063793cd71e1461023a5780639fc71b3114610244576100c1565b8062fdd58e146100c657806301ffc9a7146101035780630e89341c146101405780632eb2c2d61461017d5780634051ddac146101a65780634e1273f4146101d2575b600080fd5b3480156100d257600080fd5b506100ed60048036038101906100e89190611aee565b61032c565b6040516100fa91906123f9565b60405180910390f35b34801561010f57600080fd5b5061012a60048036038101906101259190611b96565b6103f5565b604051610137919061224c565b60405180910390f35b34801561014c57600080fd5b5061016760048036038101906101629190611be8565b6104d7565b6040516101749190612267565b60405180910390f35b34801561018957600080fd5b506101a4600480360381019061019f9190611964565b61056b565b005b3480156101b257600080fd5b506101bb61060c565b6040516101c9929190612289565b60405180910390f35b3480156101de57600080fd5b506101f960048036038101906101f49190611b2a565b6106a9565b60405161020691906121f3565b60405180910390f35b34801561021b57600080fd5b5061022461085a565b60405161023191906123f9565b60405180910390f35b61024261085f565b005b61025e60048036038101906102599190611be8565b610924565b005b34801561026c57600080fd5b5061028760048036038101906102829190611ab2565b61098c565b005b34801561029557600080fd5b506102b060048036038101906102ab9190611928565b610b0d565b6040516102bd919061224c565b60405180910390f35b3480156102d257600080fd5b506102ed60048036038101906102e89190611aee565b610ba1565b6040516102fa91906123f9565b60405180910390f35b34801561030f57600080fd5b5061032a60048036038101906103259190611a23565b610bb5565b005b60008073ffffffffffffffffffffffffffffffffffffffff168373ffffffffffffffffffffffffffffffffffffffff16141561039d576040517f08c379a0000000000000000000000000000000000000000000000000000000008152600401610394906122f9565b60405180910390fd5b60008083815260200190815260200160002060008473ffffffffffffffffffffffffffffffffffffffff1673ffffffffffffffffffffffffffffffffffffffff16815260200190815260200160002054905092915050565b60007fd9b67a26000000000000000000000000000000000000000000000000000000007bffffffffffffffffffffffffffffffffffffffffffffffffffffffff1916827bffffffffffffffffffffffffffffffffffffffffffffffffffffffff191614806104c057507f0e89341c000000000000000000000000000000000000000000000000000000007bffffffffffffffffffffffffffffffffffffffffffffffffffffffff1916827bffffffffffffffffffffffffffffffffffffffffffffffffffffffff1916145b806104d057506104cf82610c69565b5b9050919050565b6060600280546104e690612673565b80601f016020809104026020016040519081016040528092919081815260200182805461051290612673565b801561055f5780601f106105345761010080835404028352916020019161055f565b820191906000526020600020905b81548152906001019060200180831161054257829003601f168201915b50505050509050919050565b610573610cd3565b73ffffffffffffffffffffffffffffffffffffffff168573ffffffffffffffffffffffffffffffffffffffff1614806105b957506105b8856105b3610cd3565b610b0d565b5b6105f8576040517f08c379a00000000000000000000000000000000000000000000000000000000081526004016105ef90612359565b60405180910390fd5b6106058585858585610cdb565b5050505050565b60606000600360045481805461062190612673565b80601f016020809104026020016040519081016040528092919081815260200182805461064d90612673565b801561069a5780601f1061066f5761010080835404028352916020019161069a565b820191906000526020600020905b81548152906001019060200180831161067d57829003601f168201915b50505050509150915091509091565b606081518351146106ef576040517f08c379a00000000000000000000000000000000000000000000000000000000081526004016106e6906123b9565b60405180910390fd5b6000835167ffffffffffffffff811115610732577f4e487b7100000000000000000000000000000000000000000000000000000000600052604160045260246000fd5b6040519080825280602002602001820160405280156107605781602001602082028036833780820191505090505b50905060005b845181101561084f576107f98582815181106107ab577f4e487b7100000000000000000000000000000000000000000000000000000000600052603260045260246000fd5b60200260200101518583815181106107ec577f4e487b7100000000000000000000000000000000000000000000000000000000600052603260045260246000fd5b602002602001015161032c565b828281518110610832577f4e487b7100000000000000000000000000000000000000000000000000000000600052603260045260246000fd5b60200260200101818152505080610848906126a5565b9050610766565b508091505092915050565b600081565b600560009054906101000a900473ffffffffffffffffffffffffffffffffffffffff1673ffffffffffffffffffffffffffffffffffffffff163373ffffffffffffffffffffffffffffffffffffffff16146108b957600080fd5b600560009054906101000a900473ffffffffffffffffffffffffffffffffffffffff1673ffffffffffffffffffffffffffffffffffffffff166108fc479081150290604051600060405180830381858888f19350505050158015610921573d6000803e3d6000fd5b50565b610989600560009054906101000a900473ffffffffffffffffffffffffffffffffffffffff16336000846040518060400160405280600381526020017f307830000000000000000000000000000000000000000000000000000000000081525061103b565b50565b8173ffffffffffffffffffffffffffffffffffffffff166109ab610cd3565b73ffffffffffffffffffffffffffffffffffffffff161415610a02576040517f08c379a00000000000000000000000000000000000000000000000000000000081526004016109f990612399565b60405180910390fd5b8060016000610a0f610cd3565b73ffffffffffffffffffffffffffffffffffffffff1673ffffffffffffffffffffffffffffffffffffffff16815260200190815260200160002060008473ffffffffffffffffffffffffffffffffffffffff1673ffffffffffffffffffffffffffffffffffffffff16815260200190815260200160002060006101000a81548160ff0219169083151502179055508173ffffffffffffffffffffffffffffffffffffffff16610abc610cd3565b73ffffffffffffffffffffffffffffffffffffffff167f17307eab39ab6107e8899845ad3d59bd9653f200f220920489ca2b5937696c3183604051610b01919061224c565b60405180910390a35050565b6000600160008473ffffffffffffffffffffffffffffffffffffffff1673ffffffffffffffffffffffffffffffffffffffff16815260200190815260200160002060008373ffffffffffffffffffffffffffffffffffffffff1673ffffffffffffffffffffffffffffffffffffffff16815260200190815260200160002060009054906101000a900460ff16905092915050565b6000610bad838361032c565b905092915050565b610bbd610cd3565b73ffffffffffffffffffffffffffffffffffffffff168573ffffffffffffffffffffffffffffffffffffffff161480610c035750610c0285610bfd610cd3565b610b0d565b5b610c42576040517f08c379a0000000000000000000000000000000000000000000000000000000008152600401610c3990612319565b60405180910390fd5b610c4f858585858561103b565b5050505050565b600080823b905060008111915050919050565b60007f01ffc9a7000000000000000000000000000000000000000000000000000000007bffffffffffffffffffffffffffffffffffffffffffffffffffffffff1916827bffffffffffffffffffffffffffffffffffffffffffffffffffffffff1916149050919050565b600033905090565b8151835114610d1f576040517f08c379a0000000000000000000000000000000000000000000000000000000008152600401610d16906123d9565b60405180910390fd5b600073ffffffffffffffffffffffffffffffffffffffff168473ffffffffffffffffffffffffffffffffffffffff161415610d8f576040517f08c379a0000000000000000000000000000000000000000000000000000000008152600401610d8690612339565b60405180910390fd5b6000610d99610cd3565b9050610da98187878787876112bd565b60005b8451811015610fa6576000858281518110610df0577f4e487b7100000000000000000000000000000000000000000000000000000000600052603260045260246000fd5b602002602001015190506000858381518110610e35577f4e487b7100000000000000000000000000000000000000000000000000000000600052603260045260246000fd5b60200260200101519050600080600084815260200190815260200160002060008b73ffffffffffffffffffffffffffffffffffffffff1673ffffffffffffffffffffffffffffffffffffffff16815260200190815260200160002054905081811015610ed6576040517f08c379a0000000000000000000000000000000000000000000000000000000008152600401610ecd90612379565b60405180910390fd5b81810360008085815260200190815260200160002060008c73ffffffffffffffffffffffffffffffffffffffff1673ffffffffffffffffffffffffffffffffffffffff168152602001908152602001600020819055508160008085815260200190815260200160002060008b73ffffffffffffffffffffffffffffffffffffffff1673ffffffffffffffffffffffffffffffffffffffff1681526020019081526020016000206000828254610f8b9190612567565b9250508190555050505080610f9f906126a5565b9050610dac565b508473ffffffffffffffffffffffffffffffffffffffff168673ffffffffffffffffffffffffffffffffffffffff168273ffffffffffffffffffffffffffffffffffffffff167f4a39dc06d4c0dbc64b70af90fd698a233a518aa5d07e595d983b8c0526c8f7fb878760405161101d929190612215565b60405180910390a46110338187878787876112c5565b505050505050565b600073ffffffffffffffffffffffffffffffffffffffff168473ffffffffffffffffffffffffffffffffffffffff1614156110ab576040517f08c379a00000000000000000000000000000000000000000000000000000000081526004016110a290612339565b60405180910390fd5b60006110b5610cd3565b90506110d58187876110c688611495565b6110cf88611495565b876112bd565b600080600086815260200190815260200160002060008873ffffffffffffffffffffffffffffffffffffffff1673ffffffffffffffffffffffffffffffffffffffff1681526020019081526020016000205490508381101561116c576040517f08c379a000000000000000000000000000000000000000000000000000000000815260040161116390612379565b60405180910390fd5b83810360008087815260200190815260200160002060008973ffffffffffffffffffffffffffffffffffffffff1673ffffffffffffffffffffffffffffffffffffffff168152602001908152602001600020819055508360008087815260200190815260200160002060008873ffffffffffffffffffffffffffffffffffffffff1673ffffffffffffffffffffffffffffffffffffffff16815260200190815260200160002060008282546112219190612567565b925050819055508573ffffffffffffffffffffffffffffffffffffffff168773ffffffffffffffffffffffffffffffffffffffff168373ffffffffffffffffffffffffffffffffffffffff167fc3d58168c5ae7397731d063d5bbf3d657854427343f4c083240f7aacaa2d0f62888860405161129e929190612414565b60405180910390a46112b482888888888861155b565b50505050505050565b505050505050565b6112e48473ffffffffffffffffffffffffffffffffffffffff16610c56565b1561148d578373ffffffffffffffffffffffffffffffffffffffff1663bc197c8187878686866040518663ffffffff1660e01b815260040161132a959493929190612131565b602060405180830381600087803b15801561134457600080fd5b505af192505050801561137557506040513d601f19601f820116820180604052508101906113729190611bbf565b60015b61140457611381612799565b8061138c57506113c9565b806040517f08c379a00000000000000000000000000000000000000000000000000000000081526004016113c09190612267565b60405180910390fd5b6040517f08c379a00000000000000000000000000000000000000000000000000000000081526004016113fb906122b9565b60405180910390fd5b63bc197c8160e01b7bffffffffffffffffffffffffffffffffffffffffffffffffffffffff1916817bffffffffffffffffffffffffffffffffffffffffffffffffffffffff19161461148b576040517f08c379a0000000000000000000000000000000000000000000000000000000008152600401611482906122d9565b60405180910390fd5b505b505050505050565b60606000600167ffffffffffffffff8111156114da577f4e487b7100000000000000000000000000000000000000000000000000000000600052604160045260246000fd5b6040519080825280602002602001820160405280156115085781602001602082028036833780820191505090505b5090508281600081518110611546577f4e487b7100000000000000000000000000000000000000000000000000000000600052603260045260246000fd5b60200260200101818152505080915050919050565b61157a8473ffffffffffffffffffffffffffffffffffffffff16610c56565b15611723578373ffffffffffffffffffffffffffffffffffffffff1663f23a6e6187878686866040518663ffffffff1660e01b81526004016115c0959493929190612199565b602060405180830381600087803b1580156115da57600080fd5b505af192505050801561160b57506040513d601f19601f820116820180604052508101906116089190611bbf565b60015b61169a57611617612799565b80611622575061165f565b806040517f08c379a00000000000000000000000000000000000000000000000000000000081526004016116569190612267565b60405180910390fd5b6040517f08c379a0000000000000000000000000000000000000000000000000000000008152600401611691906122b9565b60405180910390fd5b63f23a6e6160e01b7bffffffffffffffffffffffffffffffffffffffffffffffffffffffff1916817bffffffffffffffffffffffffffffffffffffffffffffffffffffffff191614611721576040517f08c379a0000000000000000000000000000000000000000000000000000000008152600401611718906122d9565b60405180910390fd5b505b505050505050565b600061173e6117398461246e565b61243d565b9050808382526020820190508285602086028201111561175d57600080fd5b60005b8581101561178d57816117738882611841565b845260208401935060208301925050600181019050611760565b5050509392505050565b60006117aa6117a58461249a565b61243d565b905080838252602082019050828560208602820111156117c957600080fd5b60005b858110156117f957816117df8882611913565b8452602084019350602083019250506001810190506117cc565b5050509392505050565b6000611816611811846124c6565b61243d565b90508281526020810184848401111561182e57600080fd5b611839848285612631565b509392505050565b6000813590506118508161284f565b92915050565b600082601f83011261186757600080fd5b813561187784826020860161172b565b91505092915050565b600082601f83011261189157600080fd5b81356118a1848260208601611797565b91505092915050565b6000813590506118b981612866565b92915050565b6000813590506118ce8161287d565b92915050565b6000815190506118e38161287d565b92915050565b600082601f8301126118fa57600080fd5b813561190a848260208601611803565b91505092915050565b60008135905061192281612894565b92915050565b6000806040838503121561193b57600080fd5b600061194985828601611841565b925050602061195a85828601611841565b9150509250929050565b600080600080600060a0868803121561197c57600080fd5b600061198a88828901611841565b955050602061199b88828901611841565b945050604086013567ffffffffffffffff8111156119b857600080fd5b6119c488828901611880565b935050606086013567ffffffffffffffff8111156119e157600080fd5b6119ed88828901611880565b925050608086013567ffffffffffffffff811115611a0a57600080fd5b611a16888289016118e9565b9150509295509295909350565b600080600080600060a08688031215611a3b57600080fd5b6000611a4988828901611841565b9550506020611a5a88828901611841565b9450506040611a6b88828901611913565b9350506060611a7c88828901611913565b925050608086013567ffffffffffffffff811115611a9957600080fd5b611aa5888289016118e9565b9150509295509295909350565b60008060408385031215611ac557600080fd5b6000611ad385828601611841565b9250506020611ae4858286016118aa565b9150509250929050565b60008060408385031215611b0157600080fd5b6000611b0f85828601611841565b9250506020611b2085828601611913565b9150509250929050565b60008060408385031215611b3d57600080fd5b600083013567ffffffffffffffff811115611b5757600080fd5b611b6385828601611856565b925050602083013567ffffffffffffffff811115611b8057600080fd5b611b8c85828601611880565b9150509250929050565b600060208284031215611ba857600080fd5b6000611bb6848285016118bf565b91505092915050565b600060208284031215611bd157600080fd5b6000611bdf848285016118d4565b91505092915050565b600060208284031215611bfa57600080fd5b6000611c0884828501611913565b91505092915050565b6000611c1d8383612113565b60208301905092915050565b611c32816125bd565b82525050565b6000611c4382612506565b611c4d8185612534565b9350611c58836124f6565b8060005b83811015611c89578151611c708882611c11565b9750611c7b83612527565b925050600181019050611c5c565b5085935050505092915050565b611c9f816125cf565b82525050565b6000611cb082612511565b611cba8185612545565b9350611cca818560208601612640565b611cd38161277b565b840191505092915050565b6000611ce98261251c565b611cf38185612556565b9350611d03818560208601612640565b611d0c8161277b565b840191505092915050565b6000611d24603483612556565b91507f455243313135353a207472616e7366657220746f206e6f6e204552433131353560008301527f526563656976657220696d706c656d656e7465720000000000000000000000006020830152604082019050919050565b6000611d8a602883612556565b91507f455243313135353a204552433131353552656365697665722072656a6563746560008301527f6420746f6b656e730000000000000000000000000000000000000000000000006020830152604082019050919050565b6000611df0602b83612556565b91507f455243313135353a2062616c616e636520717565727920666f7220746865207a60008301527f65726f20616464726573730000000000000000000000000000000000000000006020830152604082019050919050565b6000611e56602983612556565b91507f455243313135353a2063616c6c6572206973206e6f74206f776e6572206e6f7260008301527f20617070726f76656400000000000000000000000000000000000000000000006020830152604082019050919050565b6000611ebc602583612556565b91507f455243313135353a207472616e7366657220746f20746865207a65726f20616460008301527f64726573730000000000000000000000000000000000000000000000000000006020830152604082019050919050565b6000611f22603283612556565b91507f455243313135353a207472616e736665722063616c6c6572206973206e6f742060008301527f6f776e6572206e6f7220617070726f76656400000000000000000000000000006020830152604082019050919050565b6000611f88602a83612556565b91507f455243313135353a20696e73756666696369656e742062616c616e636520666f60008301527f72207472616e73666572000000000000000000000000000000000000000000006020830152604082019050919050565b6000611fee602983612556565b91507f455243313135353a2073657474696e6720617070726f76616c2073746174757360008301527f20666f722073656c6600000000000000000000000000000000000000000000006020830152604082019050919050565b6000612054602983612556565b91507f455243313135353a206163636f756e747320616e6420696473206c656e67746860008301527f206d69736d6174636800000000000000000000000000000000000000000000006020830152604082019050919050565b60006120ba602883612556565b91507f455243313135353a2069647320616e6420616d6f756e7473206c656e6774682060008301527f6d69736d617463680000000000000000000000000000000000000000000000006020830152604082019050919050565b61211c81612627565b82525050565b61212b81612627565b82525050565b600060a0820190506121466000830188611c29565b6121536020830187611c29565b81810360408301526121658186611c38565b905081810360608301526121798185611c38565b9050818103608083015261218d8184611ca5565b90509695505050505050565b600060a0820190506121ae6000830188611c29565b6121bb6020830187611c29565b6121c86040830186612122565b6121d56060830185612122565b81810360808301526121e78184611ca5565b90509695505050505050565b6000602082019050818103600083015261220d8184611c38565b905092915050565b6000604082019050818103600083015261222f8185611c38565b905081810360208301526122438184611c38565b90509392505050565b60006020820190506122616000830184611c96565b92915050565b600060208201905081810360008301526122818184611cde565b905092915050565b600060408201905081810360008301526122a38185611cde565b90506122b26020830184612122565b9392505050565b600060208201905081810360008301526122d281611d17565b9050919050565b600060208201905081810360008301526122f281611d7d565b9050919050565b6000602082019050818103600083015261231281611de3565b9050919050565b6000602082019050818103600083015261233281611e49565b9050919050565b6000602082019050818103600083015261235281611eaf565b9050919050565b6000602082019050818103600083015261237281611f15565b9050919050565b6000602082019050818103600083015261239281611f7b565b9050919050565b600060208201905081810360008301526123b281611fe1565b9050919050565b600060208201905081810360008301526123d281612047565b9050919050565b600060208201905081810360008301526123f2816120ad565b9050919050565b600060208201905061240e6000830184612122565b92915050565b60006040820190506124296000830185612122565b6124366020830184612122565b9392505050565b6000604051905081810181811067ffffffffffffffff821117156124645761246361274c565b5b8060405250919050565b600067ffffffffffffffff8211156124895761248861274c565b5b602082029050602081019050919050565b600067ffffffffffffffff8211156124b5576124b461274c565b5b602082029050602081019050919050565b600067ffffffffffffffff8211156124e1576124e061274c565b5b601f19601f8301169050602081019050919050565b6000819050602082019050919050565b600081519050919050565b600081519050919050565b600081519050919050565b6000602082019050919050565b600082825260208201905092915050565b600082825260208201905092915050565b600082825260208201905092915050565b600061257282612627565b915061257d83612627565b9250827fffffffffffffffffffffffffffffffffffffffffffffffffffffffffffffffff038211156125b2576125b16126ee565b5b828201905092915050565b60006125c882612607565b9050919050565b60008115159050919050565b60007fffffffff0000000000000000000000000000000000000000000000000000000082169050919050565b600073ffffffffffffffffffffffffffffffffffffffff82169050919050565b6000819050919050565b82818337600083830152505050565b60005b8381101561265e578082015181840152602081019050612643565b8381111561266d576000848401525b50505050565b6000600282049050600182168061268b57607f821691505b6020821081141561269f5761269e61271d565b5b50919050565b60006126b082612627565b91507fffffffffffffffffffffffffffffffffffffffffffffffffffffffffffffffff8214156126e3576126e26126ee565b5b600182019050919050565b7f4e487b7100000000000000000000000000000000000000000000000000000000600052601160045260246000fd5b7f4e487b7100000000000000000000000000000000000000000000000000000000600052602260045260246000fd5b7f4e487b7100000000000000000000000000000000000000000000000000000000600052604160045260246000fd5b6000601f19601f8301169050919050565b60008160e01c9050919050565b600060443d10156127a95761284c565b60046000803e6127ba60005161278c565b6308c379a081146127cb575061284c565b60405160043d036004823e80513d602482011167ffffffffffffffff821117156127f75750505061284c565b808201805167ffffffffffffffff81111561281657505050505061284c565b8060208301013d85018111156128315750505050505061284c565b61283a8261277b565b60208401016040528296505050505050505b90565b612858816125bd565b811461286357600080fd5b50565b61286f816125cf565b811461287a57600080fd5b50565b612886816125db565b811461289157600080fd5b50565b61289d81612627565b81146128a857600080fd5b5056fea26469706673582212208953d4bff9ea1c5aa392fd138cfab2bb2f79d5fb2cb44d01d5c88ceb0f87909364736f6c63430008000033",
  "immutableReferences": {},
  "source": "pragma solidity ^0.8.0;\n\n\nimport \"@openzeppelin/contracts/token/ERC1155/ERC1155.sol\";\n\n\ncontract PoolFactory {\n    Pool[] public deployedPools;\n\n    function createPool(uint stockCount, string memory poolName) public {\n        Pool newPool  = new Pool(stockCount, poolName, payable(msg.sender));\n        deployedPools.push(newPool);\n    }\n    \n        function getDeployedPools() public view returns (Pool[] memory) {\n        return deployedPools;\n    }\n    \n}\n\ncontract Pool is ERC1155  {\n    \n    string poolName;\n    uint tokenCount;\n    address payable poolManager;\n    \n    uint public constant stockIdx = 0;\n    \n    constructor(uint stockCount, string memory providedPoolName, address payable creator) public ERC1155(\"\") {\n        poolManager = creator;\n        poolName = providedPoolName;\n        tokenCount = stockCount;\n        _mint(creator, stockIdx, stockCount, \"\");\n    }\n    \n    \n    function transferToken(uint tokenTransferAmmount) public payable {\n        _safeTransferFrom(poolManager, msg.sender, stockIdx, tokenTransferAmmount, \"0x0\");\n    }\n    \n        function getAccountTokenBalance( address providedAccount,  uint id) public returns(uint) {\n        return balanceOf(providedAccount, id);\n    }\n    \n    function cashOut() public payable {\n        require(msg.sender == poolManager);\n        poolManager.transfer(address(this).balance);\n    }\n    \n    function getSummary() public view returns(string memory, uint) {\n        return (\n            poolName,\n            tokenCount\n            );\n    }\n     \n}",
  "sourcePath": "/Users/diego/Documents/Portfolio/Web3/project_ERC1155/ethereum/contracts/Main.sol",
  "compiler": {
    "name": "solc",
    "version": "0.8.0+commit.c7dfd78e.Emscripten.clang"
  },
  "schemaVersion": "3.4.3",
  "updatedAt": "2021-10-25T15:11:06.953Z",
  "devdoc": {
    "kind": "dev",
    "methods": {
      "balanceOf(address,uint256)": {
        "details": "See {IERC1155-balanceOf}. Requirements: - `account` cannot be the zero address."
      },
      "balanceOfBatch(address[],uint256[])": {
        "details": "See {IERC1155-balanceOfBatch}. Requirements: - `accounts` and `ids` must have the same length."
      },
      "isApprovedForAll(address,address)": {
        "details": "See {IERC1155-isApprovedForAll}."
      },
      "safeBatchTransferFrom(address,address,uint256[],uint256[],bytes)": {
        "details": "See {IERC1155-safeBatchTransferFrom}."
      },
      "safeTransferFrom(address,address,uint256,uint256,bytes)": {
        "details": "See {IERC1155-safeTransferFrom}."
      },
      "setApprovalForAll(address,bool)": {
        "details": "See {IERC1155-setApprovalForAll}."
      },
      "supportsInterface(bytes4)": {
        "details": "See {IERC165-supportsInterface}."
      },
      "uri(uint256)": {
        "details": "See {IERC1155MetadataURI-uri}. This implementation returns the same URI for *all* token types. It relies on the token type ID substitution mechanism https://eips.ethereum.org/EIPS/eip-1155#metadata[defined in the EIP]. Clients calling this function must replace the `\\{id\\}` substring with the actual token type ID."
      }
    },
    "version": 1
  },
  "userdoc": {
    "kind": "user",
    "methods": {},
    "version": 1
  }
}